:020000040800F2
:10000000C804002001010008231B0008D3190008C0
:10001000211B00087502000885210008000000006F
:100020000000000000000000000000004B1D000860
:100030007702000800000000251B00084D1D000885
:100040001B0100081B0100081B0100081B01000820
:100050001B0100081B0100081B0100081B01000810
:100060001B0100081B0100081B0100081B01000800
:100070001B0100081B0100081B0100081B010008F0
:100080001B0100081B0100081B0100081B010008E0
:100090001B0100081B0100081B0100081B010008D0
:1000A0001B0100081B0100081B0100081B010008C0
:1000B0001B0100081B0100081B0100081B010008B0
:1000C0001B0100081B0100081B0100081B010008A0
:1000D0001B010008792100081B0100081B01000812
:1000E0001B010008291B00081B010008DFF80CD0C9
:1000F00000F0ACF800480047C5210008C804002003
:100100000648804706480047FEE7FEE7FEE7FEE7B1
:10011000FEE7FEE7FEE7FEE7FEE7FEE7CF1D00088D
:10012000ED000008D2B201E000F8012B491EFBD21D
:1001300070470022F6E710B513460A4604461946F2
:10014000FFF7F0FF204610BD80EA010210B502F073
:100150000043400022D04A001FD0010E01EB126183
:10016000C0F35600C2F3560240F4000042F400020D
:10017000A0FB022000047F39140400D0401C50EA88
:10018000124001D44000491EC2B20C0604EBD0104C
:10019000401C4008802A02D003E0002010BD20F05F
:1001A0000100002900DA0020184310BD9623002228
:1001B000114600F01DB820F00040C10DC0F316003C
:1001C00040F400007F2901DA00207047962903DC03
:1001D000C1F19601C84070479639884070470029A0
:1001E000A8BF7047401C490008BF20F001007047BD
:1001F00010B4B0FA80FC00FA0CF050EA010404BF1D
:1002000010BC704749B1CCF1200421FA04F411FA72
:100210000CF118BF012121430843A3EB0C01CB1DB6
:100220004FEA00614FEA102042BF002010BC704727
:1002300000EBC35010440029A4BF10BC7047401C01
:10024000490008BF20F0010010BC7047064C074D64
:1002500006E0E06840F0010394E807009847103496
:10026000AC42F6D3FFF746FFDC220008FC22000870
:1002700001F09EBAFEE7704710B590F821100024F7
:10028000022903D00421816301243DE001680A684A
:1002900022F00E020A6001680A6822F001020A6078
:1002A0001A4A0168914201D1012121E0174A143212
:1002B000914201D110211BE0144A2832914201D110
:1002C000891515E0114A3C32914201D189140FE0A1
:1002D0000E4A5032914202D14FF4803108E00B4A6D
:1002E0006432914202D14FF4801101E04FF08071ED
:1002F000064A083A5160012180F82110002180F857
:100300002010416B01B18847204610BD0800024013
:100310002DE9F84FDFF8B891002409F1040A0AF139
:10032000040B23460F270BF1040EC9E00125A5405D
:100330002A40AA427DD1674ED1F804C0ACEB060832
:10034000B44532D014DCBCF1030F3AD009DCBCF167
:10035000000F2AD0BCF1010F1CD0BCF1020F31D12B
:100360001DE0BCF1110F17D0BCF1120F2AD119E01A
:10037000B8F5881F19D006DCB8F5803F15D0B8F560
:10038000801F1FD111E0B8F5001F0ED0B8F5041F73
:1003900018D10AE0CB6815E0CB681B1D12E0CB68D2
:1003A00008330FE0CB680C330CE08B682BB1012BCA
:1003B0004FF0080303D0456104E0042302E0056127
:1003C00000E00023FF2A01D8064601E000F1040600
:1003D0004FEA840501D9A5F12005D6F8008007FA77
:1003E00005FC28EA0C0803FA05F548EA0508C6F8F2
:1003F00000804D68ED0062D5374DAE6946F00106CC
:10040000AE61AD6924F0030605F001050095334D9A
:1004100006EB050CDCF80850A607360F07FA06F8BD
:1004200025EA0805DFF8B880404503D14FF0000801
:1004300017E044E0DFF8AC80404502D14FF00108FE
:100440000FE0DFF8A480404502D14FF0020808E039
:10045000DFF89880404502D14FF0030801E04FF0EB
:10046000040808FA06F848EA0508CCF808804D6840
:10047000D9F80060ED034D4601D5164300E09643E0
:100480002E604D68DAF80060AD03554601D516437D
:1004900000E096432E604D68DBF80060ED025D469B
:1004A00001D5164300E096432E604D68DEF80060EB
:1004B000AD02754601D5164300E096432E60641CDC
:1004C0000D682A46E5407FF431AFBDE8F88F0000A3
:1004D0000004014000001110001002400000014023
:1004E00000080140000C01400010014000140140D0
:1004F00001488068704700001C00002002488168A5
:1005000002781144816070471C000020074810B534
:10051000016841F010010160032000F075F800202F
:1005200000F006F800F024F8002010BD0020024082
:1005300070B50D4D04464FF47A712878B1FBF0F098
:100540000A490968B1FBF0F000F017FE48B9102C19
:1005500007D200222146501E00F036F800206C60C1
:1005600070BD012070BD00001C000020280000208C
:100570000C4808B5816941F001018161816901F090
:1005800001010091C16941F08051C161C06900F071
:10059000805000900448416821F0E06141F0007112
:1005A000416008BD0010024000000140002809DB46
:1005B00000F01F02012191404009800000F1E0207D
:1005C000C0F8001170470000F0B40E4B1B680C46D9
:1005D000C3F30223C3F10705042D00D90425191D17
:1005E000072901D2002300E0DB1E012606FA05F1EF
:1005F000491E214099409E40761E16403143F0BC72
:1006000001F0C1BD0CED00E0064900F007020868EA
:100610004FF6FF03184040EA0220034A10430860E7
:10062000704700000CED00E00000FA0501490120D0
:100630000862704700000E4210B529A401461DCC87
:1006400086B08DE81D002AA02A4C00680490002086
:10065000012923D002293AD010291DD161682268CE
:10066000D20119D5C1F38342C9031DF8020009D58F
:10067000616804AAC1F34041515C1F4AB2FBF1F129
:10068000484301E01D4948436168490204D44000E1
:100690005FF00301B0FBF1F006B010BD226AC2F3B7
:1006A0000121012903D1920701D5C803F4E70229EA
:1006B00005D1626A920702D549F64040ECE703296A
:1006C000EAD121688903E7D54FF22440E4E700F03E
:1006D00033F96168C1F38131491C4900DAE7000050
:1006E00002030405060708090A0B0C0D0E0F101073
:1006F000010200000010024000127A0000093D00D3
:100700002DE9F84305460078354CC00754D0E06920
:100710000026C00008D4E06940F08050E061E06944
:10072000012600F0805000902E480168C90512D4BF
:100730000168804641F480710160FFF7D9FE0746E9
:1007400005E000BFFFF7D4FEC01B642823D8D8F80B
:100750000000C005F6D5206A10F4407021D0A988A9
:1007600001F4407181421CD0206A1F49012220F40B
:1007700040700A6000220A602062C00711D0FFF7B3
:10078000B7FE074641F2883808E000BFFFF7B0FE29
:10079000C11B414502D90320BDE8F883206A8007C8
:1007A000F4D5206A696820F44070084320621EB1C5
:1007B000E06920F08050E0612878800705D5606806
:1007C000A96820F44040084360602878C00605D539
:1007D0006068E96820F48000084360600020DBE77F
:1007E0000010024000700040400442422DE9F047F2
:1007F0000F46050061D0434E306800F00700B84254
:1008000009D2306820F0070038433060306800F0CB
:100810000700B84251D128683B4C810712D54007E8
:1008200003D5606840F4E06060602878000703D575
:10083000606840F4605060606068A96820F0F00073
:10084000084360602878C00728D06868012810D065
:100850002168022810D0890700292EDA616821F06A
:10086000030101436160FFF743FE804641F288398E
:100870000DE021688903EFE78901EDE7FFF738FE16
:10088000A0EB0801494502D90320BDE8F087606864
:10089000696800F00C00B0EB810FEFD1306800F018
:1008A0000700B8420BD9306820F0070038433060A9
:1008B000306800F00700B84201D00120E5E7287851
:1008C000400705D56068E96820F4E060084360608F
:1008D0002878000706D56068296920F4605040EA4E
:1008E000C100606000F038F86168084AC1F3031184
:1008F000515CC8400649086006480068FFF718FECA
:100900000020C2E70020024000100240C22200087E
:10091000280000202000002004480549006849689C
:10092000044AC1F30221515CC840704728000020EE
:1009300000100240D22200080448054900684968B6
:10094000044AC1F3C221515CC8407047280000200E
:1009500000100240D222000812A185B00FC98DE814
:100960000F0014A0144A006804905168134801F065
:100970000C03042B10D0082B0ED1C1F38343C90301
:100980001DF803000AD5516804AAC1F34041515C27
:100990000A4A5043B0FBF1F005B07047084948439C
:1009A000FAE7000002030405060708090A0B0C0D0C
:1009B0000E0F1010010200000010024000127A0019
:1009C00000093D002DE9F84F040070D02078C04D9B
:1009D000C00749D06868C0F38100012807D0686863
:1009E000C0F38100022809D16868C00306D52868D1
:1009F000800339D560680028E7D035E06068B0F53D
:100A0000803F0BD010B1B0F5A02F11D0286820F492
:100A100080302860286820F4802002E0286840F4B4
:100A200080302860606890B1FFF762FD06460AE0FA
:100A3000286840F480202860F0E700BFFFF758FDE9
:100A4000801B642873D828688003F7D50CE0FFF773
:100A50004FFD064605E000BFFFF74AFD801B6428F6
:100A6000F0D828688003F7D420789A4E80074FF09A
:100A700001094FF0000839D5686810F00C0F07D055
:100A80006868C0F38100022809D16868C00306D4F1
:100A90002868800714D52069012808D110E0206952
:100AA000B0B1C6F80090FFF723FD074605E00AE164
:100AB000FFF71EFDC01B0228C4D828688007F7D5A1
:100AC0002868616920F0F80040EAC10028600DE064
:100AD000C6F80080FFF70CFD074604E0FFF708FDAD
:100AE000C01B022823D828688007F7D42078000785
:100AF0002CD57948A169D9B1C0F80090FFF7F8FC6E
:100B0000074604E0FFF7F4FCC01B02280FD8686A10
:100B10008007F7D571484FF4FA510068B0FBF1F047
:100B2000009000BF0098411E0091FAD20EE080E0D4
:100B3000C0F80080FFF7DCFC074604E0FFF7D8FCB4
:100B4000C01B022875D8686A8007F7D42078400750
:100B500060D5E8690027C00008D4E86940F08050FB
:100B6000E861E869012700F0805000905C48016866
:100B7000C90513D40168834641F480710160FFF711
:100B8000B7FC824606E000BFFFF7B2FCA0EB0A000C
:100B900064284ED8DBF80000C005F5D5E0680128D0
:100BA0000AD008B1052813D0286A20F00100286275
:100BB000286A20F0040002E0286A40F00100286260
:100BC000E06841F2883B98B1FFF792FC82460BE067
:100BD000286A40F004002862EEE700BFFFF788FCB7
:100BE000A0EB0A0159455AD8286A8007F6D50CE0CF
:100BF000FFF77EFC824605E0FFF77AFCA0EB0A01D6
:100C000059454CD8286A8007F6D41FB1E86920F00E
:100C10008050E861E06988B36968C1F38101022905
:100C200044D00228C6F8608004D0FFF761FC044677
:100C300038E034E0FFF75CFC074604E0FFF758FCBF
:100C4000C01B02282BD828688001F7D4206AB0F591
:100C5000803F05D16868A16820F4003008436860CF
:100C6000D4E908010843696821F4741108436860F5
:100C7000C6F86090FFF73CFC044606E025E000BFA4
:100C8000FFF736FC001B022809D828688001F7D539
:100C90001BE000BFFFF72CFC001B022802D9032039
:100CA000BDE8F88F28688001F4D40EE00128F7D061
:100CB0006868226A00F48031914204D1616A00F4CC
:100CC0007010884201D00120EAE70020E8E7000028
:100CD00000100240000042428004424228000020EE
:100CE000007000400249D1F80600096901F0C6BA57
:100CF0000000002010B5044600680168890709D586
:100D00004068800706D52046FFF7ECFF21686FF0AA
:100D10000200486003494FF400300860012060740D
:100D200010BD0000140401402DE9F04791460C4627
:100D30005FEA00084AD084B3D8F800004068400752
:100D400044D4404600F09EFF4FF461620546B0FB7C
:100D5000F2F1B0FBF2F302FB13503C23B0FBF3F0D3
:100D6000B5FBF2F6607002FB1650B0FBF3F203FB2A
:100D70001200A070182931D31820B1FBF0F7B1FB95
:100D8000F0F200FB12102070404600F074FF411C8E
:100D900004D0A84202D9461B02E017E04FF0FF360C
:100DA000A7EB071000EB4000C0EB001005EBC015EF
:100DB0002946404600F0B5FF40B9701C01D07119BA
:100DC00000E03146404600F098FF10B10120BDE838
:100DD000F0873946404600F0C1FE00E02170B9F1CD
:100DE000000F0BD0207800F0AEFE2070607800F08D
:100DF000AAFE6070A07800F0A6FEA0700020E6E7D2
:100E000070B5040003D0607C002610B105E001201D
:100E100070BD2674204600F043F80220607420461E
:100E200000F08EF9042578BB204600F0EEFE58BB9A
:100E30002068416821F007014160A06820B117488F
:100E4000016821F0010101601448001F0168A268D7
:100E500021F46071114301606068411C04D10120DC
:100E6000FFF7EAFB80B1401E21688A6822F00F027A
:100E700042EA10428A602168CA6860F30F02CA60C1
:100E8000204600F0DDFE08B16574C0E7E67301207E
:100E90006073A0736074002070BD0000306C00406F
:100EA00008B500680D49884217D1FFF7BFFB0C4811
:100EB000C16941F00061C161C0690A4900F0006088
:100EC000009001200860002211462920FFF77CFBDA
:100ED000BDE808402920FFF769BB08BD0028004095
:100EE000001002403C0442422DE9F8434FF0000656
:100EF00017460D46040000960FD075B1207C0128DE
:100F00000ED04FF0010984F8109002206074002286
:100F100069462046FFF708FF20B10120BDE8F883AD
:100F20000220FBE79DF800004FF4616148439DF803
:100F30000110C1EB011100EB81009DF8021000EBE4
:100F400001082878E7B100F0F5FD4FF4616100FB7E
:100F500001F7687800F0EEFDC0EB001007EB8007AA
:100F6000A87800F0E7FD3918414501D21648014440
:100F7000204600F0C2FE70B1042060742674CCE7F5
:100F80004FF4616148436978C1EB011100EB8100C6
:100F9000A9780144E8E721686FF002004860206802
:100FA000016841F0020101600848016841F4003124
:100FB000016006480830016841F40031016084F89E
:100FC000119026740020A9E780510100000401401F
:100FD0002DE9F0410D4604003BD0C5B3207C01282B
:100FE0003AD04FF0010884F8108002206074E8784D
:100FF00072B300F09FFDE073687800F09BFD6073B2
:10100000A87800F097FDA073C2B2617BE07B00F08E
:1010100049FE20732870204600F034FE4FF46161D1
:10102000B0FBF1F1002518292DD91822B1FBF2F1FE
:10103000A1EB011101EB4101C1EB011100EBC11664
:101040003146204600F06DFE0427C8B90BE000E0F1
:1010500004E00120BDE8F0810220FBE7E07368783E
:101060006073A878CFE7204600F005FE411C0AD047
:10107000B04208D206490144204600F03EFE10B1BD
:1010800067742574E5E784F8118025740020E1E792
:10109000805101002DE9F0410D46040024D01DB31C
:1010A000207C012823D04FF0010884F81080022012
:1010B00060742878EAB100F03DFD4FF4616100FBF7
:1010C00001F6687800F036FDC0EB001006EB8006F4
:1010D000A87800F02FFD35182946204600F021FEA3
:1010E0000026042710BB0FE00120BDE8F08102209C
:1010F000FBE74FF4616148436978C1EB011100EBF4
:101100008100A9784518E7E72068416821F00501CA
:101110004160204600F0AFFD411C0AD0A84208D231
:1011200006490144204600F0E8FD10B167742674BA
:10113000DAE784F8118026740020D6E78051010098
:1011400070B504000AD02068416821F008014160B0
:10115000FFF7CEF905464FF47A7608E0012070BD1E
:10116000FFF7C6F9401BB04201D9032070BD2068CB
:1011700040680007F4D5002070BD10B5401EB0F1E6
:10118000807F01D3012010BD4FF0E02460610F216A
:10119000601700F0F8FF0020A06107202061002008
:1011A00010BD000070B590F83C20012A26D0012423
:1011B00080F83C40022280F83D2003685A689D6810
:1011C00022F070060A6832435A600D4B02689A4258
:1011D00008D0B2F1804F05D00A4B9A4202D00A4B98
:1011E0009A4204D1496825F080031943916080F840
:1011F0003D40002180F83C10084670BD022070BDC3
:10120000002C0140000400400008004010B504001C
:1012100003D094F83D0010B107E0012010BD00207C
:1012200084F83C00204600F01FF8022084F83D00BE
:10123000211D206800F0CCFD012084F8460084F8D0
:101240003E0084F83F0084F8400084F8410084F8B0
:10125000420084F8430084F8440084F8450084F890
:101260003D00002010BD000008B50068B0F1804FBF
:1012700008D10548C16941F00101C161C06900F0B0
:101280000100009008BD00000010024070B5044647
:1012900090F83C00012817D0012584F83C5002202A
:1012A00084F83D002068826822F0770222F47F42B1
:1012B00082600868502830D00DDC20284DD005DC35
:1012C00098B310283BD148E0022070BD302844D0AC
:1012D000402834D139E0602828D0702806D0B0F5F5
:1012E000805F2CD0B0F5005F29D10AE0CB68D1E94E
:1012F0000121206800F0AFFD2068816841F077018E
:1013000009E0CB68D1E90121206800F0A4FD206844
:10131000816841F48041816011E0CA6849682068B1
:1013200000F04EFE5021206807E016E0CA684968C8
:10133000206800F056FE6021206800F096FD84F8D9
:101340003D50002084F83C0070BDCA6849682068A0
:1013500000F036FE40212068EFE722680146104683
:10136000EBE7000000B585B00021009101910291EA
:1013700003910068B0F1804F11D10A48816941F0B2
:10138000040181618069694600F00400049007202F
:1013900000900220019003900348FEF7B9FF05B0CA
:1013A00000BD0000001002400008014070B5044676
:1013B00090F83C000D4601280AD0012084F83C003A
:1013C00042B1042A18D0082A2AD00C2A4DD139E07B
:1013D000022070BD206800F051FD2068816941F055
:1013E000080181612068816921F004018161206820
:1013F00081692A69114311E0206800F067FD2068C7
:10140000816941F4006181612068816921F4806112
:101410008161206881692A6941EA0221816124E0B1
:10142000206800F07FFD2068C16941F00801C161BA
:101430002068C16921F00401C1612068C1692A697D
:10144000114311E0206800F099FD2068C16941F462
:101450000061C1612068C16921F48061C1612068B7
:10146000C1692A6941EA0221C161002084F83C0077
:1014700070BD10B5040003D094F83D0010B107E032
:10148000012010BD002084F83C00204600F01EF82A
:10149000022084F83D00211D206800F099FC012005
:1014A00084F8460084F83E0084F83F0084F8400049
:1014B00084F8410084F8420084F8430084F8440032
:1014C00084F8450084F83D00002010BD70470000FE
:1014D00010B50446022249B104290ED0082913D0C0
:1014E00094F84100012816D0012010BD94F83E0068
:1014F0000128F9D184F83E200FE094F83F0001283C
:10150000F2D184F83F2008E094F840000128EBD1A4
:1015100084F8402001E084F841200122206800F096
:101520008DFC0F492068884203D1426C42F400428E
:1015300042642068884208D0B0F1804F05D0094944
:10154000884202D00849884204D1816801F007012D
:10155000062903D0016841F001010160002010BD9F
:10156000002C0140000400400008004070470000CB
:1015700070B5026804461068D168536910F00F0F07
:1015800052D003F0010501F490762E435FD0C207DC
:1015900005D0CA0503D5E26B42F00102E2634207BF
:1015A00005D5DA0703D0E26B42F00202E26382075C
:1015B00005D5DA0703D0E26B42F00402E2630207CA
:1015C00007D501F020022A4303D0E26B42F0080263
:1015D000E263E26B002A33D0800604D5880602D588
:1015E000204600F026FD20684069E16BC0F38010C2
:1015F000090700D428B3204600F00DFD206841699A
:1016000049061AD5416921F040014161606BA0B1E2
:101610002D494163606BFEF72FFE002810D0606BF0
:10162000416BBDE870400847830610D58B060ED588
:101630002046BDE8704000F0FCBC2046FFF796FF56
:1016400070BD2046FFF792FF0020E06370BD0306E7
:101650002BD50B0629D594F839002128F6D1A0689E
:10166000B0F5805F01D12069B0B1206A411C2162D0
:10167000216800784860E08C401E0004000CE08483
:10168000E4D12068C16821F08001C1602068C16890
:1016900041F04001C16070BD206A0088C0F30800BD
:1016A0005060206A801C2062E5E74006F3D54806BA
:1016B000F1D5D168204621F04001D160202184F885
:1016C000391000F085F970BD0720000870B50400DE
:1016D00004D094F83900002510B106E0012070BD57
:1016E00084F83850204600F023F8242084F839008C
:1016F0002068C16821F40051C160204600F0E0FC80
:101700002068016921F4904101612068416921F05C
:101710002A0141612068C16841F40051C160E5635C
:10172000202084F8390084F83A00002070BD0000C1
:1017300030B585B0002400940194029403940068AD
:10174000184988422CD11848816941F4804181614F
:10175000816901F480410491816941F00401816152
:101760008069124D00F0040004904FF40070009066
:10177000022001900320039069462846FEF7C8FD29
:101780002815CDE90004694628460294FEF7C0FDFD
:10179000002211462520FEF717FF2520FEF706FF41
:1017A00005B030BD00380140001002400008014083
:1017B00090F83A30202B22D1F9B1F2B190F83830BC
:1017C000012B1CD081628285C2850021C163222247
:1017D00080F83A2080F838100168CA6842F48072B4
:1017E000CA6001684A6942F001024A610068C16842
:1017F00041F02001C16000207047012070470220A5
:10180000704700002DE9F8436D49884274D16D4D51
:101810006C1E287804F11406A0F13001092903D8C0
:1018200021787054491C21704E280AD1B4F8030065
:10183000ADF8000060798DF802002169009800F091
:101840001DFD287846280AD1B4F80900ADF800003B
:10185000E07A8DF802002169009800F00FFD2878E9
:101860002E2804D0292864D1A078022861D1554DB2
:10187000A07800275449DFF854910B3520B1012896
:1018800030D0022855D15DE0207802461DE00328C3
:1018900004D002280DD001281CD014E0D31E95F8E6
:1018A00000C0F35C03EBC30808EB031301EB8303F5
:1018B00007E0931E95F800C0F35C03EB830809EB87
:1018C000480363442B70401EC0B20028DFD127704C
:1018D00001202DE0A2F1010C2B7816F80CC0634416
:1018E000303BEFE7207802461EE0032805D00228AF
:1018F0000ED001281ED015E05FE0D31E95F801C080
:10190000F35C03EBC30808EB031301EB830307E06D
:10191000931E95F801C0F35C03EB830809EB4803C1
:1019200063446B70401EC0B20028DED127700220D5
:10193000A07033E0A2F1010C6B7816F80CC0634480
:10194000303BEEE7207802461DE0032804D0022851
:101950000DD0012829D014E0D31E95F802C0F35C05
:1019600003EBC30808EB031301EB830307E0931EAB
:1019700095F802C0F35C03EB830809EB480363446A
:10198000AB70401EC0B20028DFD1D4E9030100F0E3
:1019900075FCAF706F702F702770A770BDE8F843AB
:1019A000012208490648FEF763BCA2F1010CAB789E
:1019B00016F80CC06344303BE2E7BDE8F883000052
:1019C000880000200100002040EDFFFF20FEFFFF07
:1019D0007047FEE77FB500242248039402940094E8
:1019E0001F4901940160611E41604FF48071816064
:1019F000FFF706FA08B172B6FEE78DF80C408DF8D5
:101A00000D408DF80E40002203A91648FFF742FB57
:101A100008B172B6FEE701258DF808508DF809501F
:101A200018208DF80A0015208DF80B00002202A95D
:101A30000C48FFF7CDFA08B172B6FEE78DF800400A
:101A40008DF801408DF80250002269460548019446
:101A5000FFF74AFA002801D072B6FEE77FBD00000A
:101A6000002800402C00002010B58EB00024079400
:101A7000089409940A940B941C2168460C94FEF770
:101A800058FB26484FF0804101600621C0E901144F
:101A90004FF48071C0E903148461FFF7B7FB08B10C
:101AA00072B6FEE74FF48050079007A91B48FFF776
:101AB000EDFB08B172B6FEE71848FFF7DAFC08B193
:101AC00072B6FEE70B940BA914480C94FFF76AFB5F
:101AD00008B172B6FEE76020CDE90004029400224E
:101AE00069460E480494FFF761FC08B172B6FEE740
:101AF000042269460948FFF759FC08B172B6FEE7AF
:101B0000082269460548FFF751FC08B172B6FEE7A6
:101B10000248FFF727FC0EB010BD00004000002077
:101B2000FEE7FEE7704700000148FFF7E3B800005A
:101B30002C000020010901EB810100F00F0000EBF7
:101B40004100C0B27047002102E00A38C0B2491C0F
:101B50000A28FAD2090740EA116070472DE9F041DE
:101B600004460025C07B627BA37B42E0012A16D09D
:101B7000032A14D0052A12D0072A10D0082A0ED022
:101B80000A2A0CD00C2A0AD0042A10D0062A0ED019
:101B9000092A0CD00B2A0AD0022A0DD028E01F2BCC
:101BA0000CD30C2A05D101221346401C20E01E2B29
:101BB00004D30123521C1BE01C2B02D203F10103AE
:101BC00016E011D183B29E0710D16426B3FBF6F75D
:101BD00006FB173636B94FF4C876B3FBF6F706FBAB
:101BE00017331BB91D2303E01D2B01D10322012351
:101BF0006D1C8D42BAD3D1B2E0736173DAB2A273B5
:101C000000F050F82073BDE8F08170B50446FEF78F
:101C10006FFC05464FF47A7606E0FEF769FC401B40
:101C2000B04201D9032070BD206840688006F4D519
:101C30002068416841F010014160002070BD000043
:101C400070B504460068416821F010014160FEF75C
:101C50004FFC05464FF47A7607E000BFFEF748FCDC
:101C6000401BB04201D9032070BD20684068800647
:101C7000F4D5002070BD0168086A496A89B241EA5A
:101C800000407047006881698AB2C1698BB281697E
:101C900089B28A4203D0C06961F31F40704743EAAA
:101CA00002407047F0B56424C1EBC1030927A500C9
:101CB000072603EB01130329B3FBF7F100F5FA60E4
:101CC000114401440AD2401EB0FBF4F201EB900132
:101CD000B0FBF5F0891A0844001D08E0B0FBF4F2EF
:101CE00001EB9001B0FBF5F0891A0844801CB0FBB1
:101CF000F6F106FB1100C0B2F0BD70B50D46064608
:101D00000024FFF782FF48B93168280C0862316867
:101D1000A8B248623046FFF793FF00B10124204685
:101D200070BD70B50D4606460024FFF76EFF48B93A
:101D30003168280C88613168A8B2C8613046FFF765
:101D40007FFF00B10124204670BD7047FEF7D6BB6F
:101D500070B594B028216846FEF7EBF914210AA863
:101D6000FEF7E7F9002501240F951195052012953E
:101D70000090CDE9025410954FF480300190022676
:101D80000494CDE90760000109906846FEF71AFE49
:101D900008B172B6FEE70F20CDE90A064FF4806065
:101DA000CDE90C5001210AA80E95FEF71FFD08B1E0
:101DB00072B6FEE74FF48070CDE90F400FA8FEF732
:101DC0009FFC002801D072B6FEE714B070BD7047CA
:101DD000F0B50268164B174C174D4FF080479842EC
:101DE00005D0B84203D0A04201D0A84203D122F0CE
:101DF00070064A683243984205D0B84203D0A042E8
:101E000001D0A84203D122F44074CA6822434C692D
:101E100022F08002224302608A68C2620A688262FB
:101E2000984201D10969016301214161F0BD0000BF
:101E3000002C0140000400400008004010B501F0F3
:101E40001F030121046A99408C430462016A9A408D
:101E50001143016210BD10B5846842EA032224F4E4
:101E60007F440A432243826010BD826822F07002E0
:101E70000A4342F0070181607047000030B5026AF2
:101E800022F001020262026A4368846924F0730549
:101E90000C682C4322F002058A682A430A4DA842A6
:101EA0000BD122F00805CA6823F440732A434D6918
:101EB00022F004021D438B692B434360846149680F
:101EC0004163026230BD0000002C014030B5026A5F
:101ED00022F010020262026A436884690D6824F4E9
:101EE000E64444EA05248D6822F0200242EA051205
:101EF0000B4DA8420ED1CD6822F0800242EA0512B5
:101F00004D6923F4406343EA85038D6922F0400262
:101F100043EA85034360846149688163026230BD9E
:101F2000002C014030B5026A22F480720262036A1A
:101F30004268C46923F4007324F073050C682C43D1
:101F40008D6843EA05230C4DA8420ED1CD6823F4D9
:101F5000006343EA05234D6922F4405242EA051228
:101F60008D6923F4806342EA05124260C4614968C6
:101F7000C163036230BD0000002C014030B5026A2D
:101F800022F480520262046A4268C3690D6823F435
:101F9000E64343EA05238D6824F4005444EA0534FB
:101FA000064DA84204D14D6922F4804242EA8512CE
:101FB0004260C36149680164046230BD002C014085
:101FC00010B5036A046A24F001040462846924F0F1
:101FD000F00444EA021423F00A020A438461026214
:101FE00010BD10B5036A23F0100303628369046A0D
:101FF00023F4704343EA023224F0A00343EA0111C0
:102000008261016210BD10B5406A0021C185C184A2
:10201000FFF7ACFA10BD0168CA6822F49072CA607A
:1020200001684A6922F001024A61202180F83A10D1
:10203000704710B590F83A10222901D0022010BD47
:1020400082684FF480539A4201D1016921B1816ABB
:102050009A421BD04AB10AE00268816A5268C2F310
:1020600008020A80816A891C08E0026972B102686C
:10207000526802F07F020A70816A491C8162C18D38
:10208000491E0904090CC18503D016E00268526894
:10209000F1E70168CA6822F02002CA600168CA68D4
:1020A00022F48072CA6001684A6922F001024A6122
:1020B000202180F83A10FFF7A5FB002010BD00009A
:1020C00070B5044600680169E26821F4405111438B
:1020D00001612169A0680843616908432168CA68F1
:1020E00041F20C639A430243CA6020684169A269C5
:1020F00021F44071114341611E492068884202D198
:10210000FEF71AFC01E0FEF707FC00EBC00101EB53
:102110000012606864218000B2FBF0F3B3FBF1F3BE
:102120006FF018067343B2FBF0F5B2FBF0F605EB67
:102130008305322303EB0515B5FBF1F5B6FBF1F68C
:1021400005F0F00505EB0615B2FBF0F6B2FBF0F07A
:10215000B0FBF1F06FF01802504306EB800003EB88
:102160000010B0FBF1F0216800F00F0028448860F7
:1021700070BD0000003801400148FFF7F9B90000C8
:1021800088000020FEE70907090E002804DB00F1A3
:10219000E02080F80014704700F00F0000F1E0200C
:1021A00080F8141D704702E008C8121F08C1002AF9
:1021B000FAD170477047002001E001C1121F002AC8
:1021C000FBD1704708B5FEF7A1F9FFF7C1FD1C4828
:1021D000816941F010018161816901F01001009174
:1021E000816941F020018161816901F02001009144
:1021F000816941F004018161806900F00400009070
:10220000FFF732FCFFF7E6FB0F480E490C22016096
:102210004FF41651416000218160C160C0E9041291
:102220008161C161FFF752FA08B172B6FEE700F0B2
:102230000FF8012205490448FEF71AF8FEE70000EE
:1022400000100240003801408800002001000020FA
:1022500010B500210848FFF73BF904210648FFF7B5
:1022600037F908210448FFF733F94FF08040002187
:1022700041638163C16310BD4000002070B5044616
:102280000E46C0B2FDF792FF3146FDF75DFFFDF748
:1022900092FF4FF080456863C4F30720FDF786FF87
:1022A0003146FDF751FFFDF786FFA863C4F30740F1
:1022B000FDF77CFF3146FDF747FFFDF77CFFE86344
:1022C00070BD0000000000000000010203040607CA
:1022D000080900000000010203040000FC220008BD
:1022E000000000202C000000A62100082823000880
:1022F0002C0000209C040000B6210008000000FF14
:1023000000F6FFFF00000000000000000000003F9A
:1023100000000000000000000100000010000000AC
:08232000000000000024F4009D
:04000005080000ED02
:00000001FF
